:100000000C943C000C94D0010C94D0010C94D001C1
:100010000C94D0010C94D0010C94D0010C94D0011C
:100020000C94D0010C94D0010C94D0010C94D0010C
:100030000C94D0010C9466000C94D0010C94D00167
:100040000C94D0010C94D0010C94D0010C94D001EC
:100050000C94D0010072007A0003B6007A007E0092
:1000600003BE007E00810003C2006000690003A49B
:10007000006900720003AD0011241FBECFE5D8E077
:10008000DEBFCDBFE4E5F0E040E017C0B591A5913B
:1000900035912591059107FD0CC095918591EF0152
:1000A000F92FE82F05900D92A217B307D9F7FE019B
:1000B00004C01D92A217B307E1F7E737F40731F741
:0C00C0000E944D010C946400F894FFCFE6
:1000CC001F920F920FB60F9211242F933F934F93C1
:1000DC005F936F937F938F939F93AF93BF93CF93C4
:1000EC00EF93FF93CCB18C2F0E94CC01C13069F4FB
:1000FC0042E750E06AE080E00E9495014EE750E054
:10010C006AE080E00E9495012CC0C23069F442E79D
:10011C0050E06AE080E00E9495014AE750E06AE016
:10012C0080E00E9495011DC0C33069F442E750E0A5
:10013C006AE081E00E9495014EE750E06AE081E0C0
:10014C000E9495010EC0C43061F442E750E06AE0B1
:10015C0081E00E9495014AE750E06AE081E00E944C
:10016C0095012FEF83EC99E0215080409040E1F70E
:10017C0000C00000FF91EF91CF91BF91AF919F9183
:10018C008F917F916F915F914F913F912F910F9034
:08019C000FBE0F901F90189593
:1001A4000F9397E699B96A3021F49AB198619AB994
:1001B4000CC09AB1E1E0F0E0DF0102C0AA0FBB1F5E
:1001C4006A95E2F7BD01692B6AB990B5000F906892
:1001D400092B220F220F220F202BB0E48B9FC0018A
:1001E4001124282B30E1439FA0011124422B40BD50
:0601F400579A0F910895D7
:1001FA009BB39F70282F207F922B9BBBC198C39AD9
:10020A0035E33A95F1F70000C398EFE3FFE1319740
:10021A00F1F700C000002BB32F70F0E18F9FC001EF
:10022A001124822B8BBBC39A35E03A95F1F7000073
:10023A00C3988FE39FE10197F1F700C0000008958A
:10024A009BB39F70282F207F922B9BBBC19AC39A86
:10025A0035E33A95F1F70000C398EFE1F3E03197FF
:10026A00F1F700C000002BB32F70F0E18F9FC0019F
:10027A001124822B8BBBC39A35E33A95F1F7000020
:10028A00C3988FE59DE60197F1F700C00000089535
:10029A000E94740149E650E060E080E00E94950106
:1002AA004AE750E06AE080E00E94950140E650E0AB
:1002BA0060E081E00E9495014AE750E06AE081E04F
:1002CA000E94950103E020E040E064E080E00E94A3
:0E02DA00D20063E080E00E94C0017894FFCF64
:1002E80080EF8ABB8FE087BBC2982FEF89EF90E041
:1002F800215080409040E1F700C0000083E30E9455
:10030800FD0082E30E94FD0088E20E94FD008CE06F
:100318000E94FD0086E00E94FD0081E00E94FD0031
:02032800089536
:10032A00CF93DF93EA01811108C0603178F4862FF8
:10033A008F7080680E94FD0009C0813039F46031F5
:10034A0028F4862F8F70806C0E94FD00CE010E94D7
:08035A00B101DF91CF9108957C
:10036200CF93DF93EC018881882331F021960E949C
:0E037200250189918111FBCFDF91CF91089574
:1003800097B3906B97BB9DB1692B6DB99EB1892BCB
:080390008EB96C9A6E9A089573
:080398008FB9779BFECF089599
:0403A0000C940000B9
:0903A400326E64204C4544200037
:0903AD00317374204C454420001A
:0803B60020202020202020005F
:0403BE004F46460060
:0303C2004F4E009B
:00000001FF
